{
  "_format": "hh-sol-artifact-1",
  "contractName": "Auction",
  "sourceName": "contracts/Auction.sol",
  "abi": [
    {
      "inputs": [
        {
          "internalType": "address payable",
          "name": "_seller",
          "type": "address"
        },
        {
          "internalType": "uint256",
          "name": "_startingPrice",
          "type": "uint256"
        },
        {
          "internalType": "uint256",
          "name": "_auctionEndTime",
          "type": "uint256"
        }
      ],
      "stateMutability": "nonpayable",
      "type": "constructor"
    },
    {
      "anonymous": false,
      "inputs": [
        {
          "indexed": false,
          "internalType": "address",
          "name": "winner",
          "type": "address"
        },
        {
          "indexed": false,
          "internalType": "uint256",
          "name": "winningBid",
          "type": "uint256"
        }
      ],
      "name": "AuctionEnded",
      "type": "event"
    },
    {
      "anonymous": false,
      "inputs": [
        {
          "indexed": false,
          "internalType": "address",
          "name": "bidder",
          "type": "address"
        },
        {
          "indexed": false,
          "internalType": "uint256",
          "name": "amount",
          "type": "uint256"
        }
      ],
      "name": "Bid",
      "type": "event"
    },
    {
      "inputs": [],
      "name": "auctionEndTime",
      "outputs": [
        {
          "internalType": "uint256",
          "name": "",
          "type": "uint256"
        }
      ],
      "stateMutability": "view",
      "type": "function"
    },
    {
      "inputs": [],
      "name": "auctionEnded",
      "outputs": [
        {
          "internalType": "bool",
          "name": "",
          "type": "bool"
        }
      ],
      "stateMutability": "view",
      "type": "function"
    },
    {
      "inputs": [],
      "name": "bid",
      "outputs": [],
      "stateMutability": "payable",
      "type": "function"
    },
    {
      "inputs": [],
      "name": "checkAuctionEndTime",
      "outputs": [
        {
          "internalType": "uint256",
          "name": "",
          "type": "uint256"
        }
      ],
      "stateMutability": "view",
      "type": "function"
    },
    {
      "inputs": [
        {
          "internalType": "address",
          "name": "_address",
          "type": "address"
        }
      ],
      "name": "checkBid",
      "outputs": [
        {
          "internalType": "uint256",
          "name": "",
          "type": "uint256"
        }
      ],
      "stateMutability": "view",
      "type": "function"
    },
    {
      "inputs": [],
      "name": "endAuction",
      "outputs": [],
      "stateMutability": "nonpayable",
      "type": "function"
    },
    {
      "inputs": [],
      "name": "highestBid",
      "outputs": [
        {
          "internalType": "uint256",
          "name": "",
          "type": "uint256"
        }
      ],
      "stateMutability": "view",
      "type": "function"
    },
    {
      "inputs": [],
      "name": "highestBidder",
      "outputs": [
        {
          "internalType": "address",
          "name": "",
          "type": "address"
        }
      ],
      "stateMutability": "view",
      "type": "function"
    },
    {
      "inputs": [],
      "name": "seller",
      "outputs": [
        {
          "internalType": "address payable",
          "name": "",
          "type": "address"
        }
      ],
      "stateMutability": "view",
      "type": "function"
    },
    {
      "inputs": [],
      "name": "startingPrice",
      "outputs": [
        {
          "internalType": "uint256",
          "name": "",
          "type": "uint256"
        }
      ],
      "stateMutability": "view",
      "type": "function"
    },
    {
      "inputs": [],
      "name": "withdraw",
      "outputs": [],
      "stateMutability": "nonpayable",
      "type": "function"
    }
  ],
  "bytecode": "0x60806040523480156200001157600080fd5b506040516200103c3803806200103c833981810160405281019062000037919062000149565b826000806101000a81548173ffffffffffffffffffffffffffffffffffffffff021916908373ffffffffffffffffffffffffffffffffffffffff160217905550816001819055506001546002819055508042620000959190620001d4565b6004819055505050506200020f565b600080fd5b600073ffffffffffffffffffffffffffffffffffffffff82169050919050565b6000620000d682620000a9565b9050919050565b620000e881620000c9565b8114620000f457600080fd5b50565b6000815190506200010881620000dd565b92915050565b6000819050919050565b62000123816200010e565b81146200012f57600080fd5b50565b600081519050620001438162000118565b92915050565b600080600060608486031215620001655762000164620000a4565b5b60006200017586828701620000f7565b9350506020620001888682870162000132565b92505060406200019b8682870162000132565b9150509250925092565b7f4e487b7100000000000000000000000000000000000000000000000000000000600052601160045260246000fd5b6000620001e1826200010e565b9150620001ee836200010e565b9250828201905080821115620002095762000208620001a5565b5b92915050565b610e1d806200021f6000396000f3fe60806040526004361061009c5760003560e01c806391f901571161006457806391f9015714610143578063d473f29e1461016e578063d57bde7914610199578063d6fbf202146101c4578063fbbcac5b146101ef578063fe67a54b1461022c5761009c565b806308551a53146100a15780631998aeef146100cc5780633ccfd60b146100d65780634b449cba146100ed5780638643337414610118575b600080fd5b3480156100ad57600080fd5b506100b6610243565b6040516100c39190610994565b60405180910390f35b6100d4610267565b005b3480156100e257600080fd5b506100eb6104d7565b005b3480156100f957600080fd5b506101026106c2565b60405161010f91906109c8565b60405180910390f35b34801561012457600080fd5b5061012d6106c8565b60405161013a91906109fe565b60405180910390f35b34801561014f57600080fd5b506101586106db565b6040516101659190610a3a565b60405180910390f35b34801561017a57600080fd5b50610183610701565b60405161019091906109c8565b60405180910390f35b3480156101a557600080fd5b506101ae61070b565b6040516101bb91906109c8565b60405180910390f35b3480156101d057600080fd5b506101d9610711565b6040516101e691906109c8565b60405180910390f35b3480156101fb57600080fd5b5061021660048036038101906102119190610a86565b610717565b60405161022391906109c8565b60405180910390f35b34801561023857600080fd5b5061024161082b565b005b60008054906101000a900473ffffffffffffffffffffffffffffffffffffffff1681565b60045442106102ab576040517f08c379a00000000000000000000000000000000000000000000000000000000081526004016102a290610b10565b60405180910390fd5b60025434116102ef576040517f08c379a00000000000000000000000000000000000000000000000000000000081526004016102e690610ba2565b60405180910390fd5b600073ffffffffffffffffffffffffffffffffffffffff16600360009054906101000a900473ffffffffffffffffffffffffffffffffffffffff1673ffffffffffffffffffffffffffffffffffffffff161461041057600360009054906101000a900473ffffffffffffffffffffffffffffffffffffffff1673ffffffffffffffffffffffffffffffffffffffff166108fc60066000600360009054906101000a900473ffffffffffffffffffffffffffffffffffffffff1673ffffffffffffffffffffffffffffffffffffffff1673ffffffffffffffffffffffffffffffffffffffff168152602001908152602001600020549081150290604051600060405180830381858888f1935050505015801561040e573d6000803e3d6000fd5b505b3460028190555033600360006101000a81548173ffffffffffffffffffffffffffffffffffffffff021916908373ffffffffffffffffffffffffffffffffffffffff16021790555034600660003373ffffffffffffffffffffffffffffffffffffffff1673ffffffffffffffffffffffffffffffffffffffff168152602001908152602001600020819055507fe684a55f31b79eca403df938249029212a5925ec6be8012e099b45bc1019e5d233346040516104cd929190610bc2565b60405180910390a1565b60045442101561051c576040517f08c379a000000000000000000000000000000000000000000000000000000000815260040161051390610c37565b60405180910390fd5b600360009054906101000a900473ffffffffffffffffffffffffffffffffffffffff1673ffffffffffffffffffffffffffffffffffffffff163373ffffffffffffffffffffffffffffffffffffffff16036105ac576040517f08c379a00000000000000000000000000000000000000000000000000000000081526004016105a390610cc9565b60405180910390fd5b6000600660003373ffffffffffffffffffffffffffffffffffffffff1673ffffffffffffffffffffffffffffffffffffffff16815260200190815260200160002054905060008111610633576040517f08c379a000000000000000000000000000000000000000000000000000000000815260040161062a90610d5b565b60405180910390fd5b6000600660003373ffffffffffffffffffffffffffffffffffffffff1673ffffffffffffffffffffffffffffffffffffffff168152602001908152602001600020819055503373ffffffffffffffffffffffffffffffffffffffff166108fc829081150290604051600060405180830381858888f193505050501580156106be573d6000803e3d6000fd5b5050565b60045481565b600560009054906101000a900460ff1681565b600360009054906101000a900473ffffffffffffffffffffffffffffffffffffffff1681565b6000600454905090565b60025481565b60015481565b600080600660008473ffffffffffffffffffffffffffffffffffffffff1673ffffffffffffffffffffffffffffffffffffffff168152602001908152602001600020541161079a576040517f08c379a000000000000000000000000000000000000000000000000000000000815260040161079190610dc7565b60405180910390fd5b6000600660008473ffffffffffffffffffffffffffffffffffffffff1673ffffffffffffffffffffffffffffffffffffffff1681526020019081526020016000205490506004544211610822576040517f08c379a000000000000000000000000000000000000000000000000000000000815260040161081990610c37565b60405180910390fd5b80915050919050565b600454421015610870576040517f08c379a000000000000000000000000000000000000000000000000000000000815260040161086790610c37565b60405180910390fd5b60008054906101000a900473ffffffffffffffffffffffffffffffffffffffff1673ffffffffffffffffffffffffffffffffffffffff166108fc6002549081150290604051600060405180830381858888f193505050501580156108d8573d6000803e3d6000fd5b507fdaec4582d5d9595688c8c98545fdd1c696d41c6aeaeb636737e84ed2f5c00eda600360009054906101000a900473ffffffffffffffffffffffffffffffffffffffff1660025460405161092e929190610bc2565b60405180910390a16001600560006101000a81548160ff021916908315150217905550565b600073ffffffffffffffffffffffffffffffffffffffff82169050919050565b600061097e82610953565b9050919050565b61098e81610973565b82525050565b60006020820190506109a96000830184610985565b92915050565b6000819050919050565b6109c2816109af565b82525050565b60006020820190506109dd60008301846109b9565b92915050565b60008115159050919050565b6109f8816109e3565b82525050565b6000602082019050610a1360008301846109ef565b92915050565b6000610a2482610953565b9050919050565b610a3481610a19565b82525050565b6000602082019050610a4f6000830184610a2b565b92915050565b600080fd5b610a6381610a19565b8114610a6e57600080fd5b50565b600081359050610a8081610a5a565b92915050565b600060208284031215610a9c57610a9b610a55565b5b6000610aaa84828501610a71565b91505092915050565b600082825260208201905092915050565b7f41756374696f6e2068617320656e646564000000000000000000000000000000600082015250565b6000610afa601183610ab3565b9150610b0582610ac4565b602082019050919050565b60006020820190508181036000830152610b2981610aed565b9050919050565b7f426964206d75737420626520686967686572207468616e20746865206375727260008201527f656e742068696768657374206269640000000000000000000000000000000000602082015250565b6000610b8c602f83610ab3565b9150610b9782610b30565b604082019050919050565b60006020820190508181036000830152610bbb81610b7f565b9050919050565b6000604082019050610bd76000830185610a2b565b610be460208301846109b9565b9392505050565b7f41756374696f6e206973207374696c6c206f6e676f696e670000000000000000600082015250565b6000610c21601883610ab3565b9150610c2c82610beb565b602082019050919050565b60006020820190508181036000830152610c5081610c14565b9050919050565b7f5468652068696768657374206269646465722063616e6e6f742077697468647260008201527f617720756e74696c207468652061756374696f6e20656e647300000000000000602082015250565b6000610cb3603983610ab3565b9150610cbe82610c57565b604082019050919050565b60006020820190508181036000830152610ce281610ca6565b9050919050565b7f4e6f2066756e647320617661696c61626c6520666f722077697468647261776160008201527f6c00000000000000000000000000000000000000000000000000000000000000602082015250565b6000610d45602183610ab3565b9150610d5082610ce9565b604082019050919050565b60006020820190508181036000830152610d7481610d38565b9050919050565b7f4e6f20626964206173736f636961746564207769746820616464726573730000600082015250565b6000610db1601e83610ab3565b9150610dbc82610d7b565b602082019050919050565b60006020820190508181036000830152610de081610da4565b905091905056fea26469706673582212205303a85b882e97113bcd6763e6b9691e9d30bc3e04a2bb82cd5e9990ca215f3f64736f6c63430008130033",
  "linkReferences": {},
  "deployedLinkReferences": {}
}